{
  "contractName": "CrazyPinyin",
  "address": "412b1c13fc3ba0938da9817c2bf762118c3486478e",
  "abi": [
    {
      "constant": true,
      "inputs": [],
      "name": "ceoAddress",
      "outputs": [
        {
          "name": "",
          "type": "address"
        }
      ],
      "payable": false,
      "stateMutability": "view",
      "type": "function"
    },
    {
      "constant": true,
      "inputs": [],
      "name": "goldPrice",
      "outputs": [
        {
          "name": "",
          "type": "uint256"
        }
      ],
      "payable": false,
      "stateMutability": "view",
      "type": "function"
    },
    {
      "constant": true,
      "inputs": [],
      "name": "devTeamAddress",
      "outputs": [
        {
          "name": "",
          "type": "address"
        }
      ],
      "payable": false,
      "stateMutability": "view",
      "type": "function"
    },
    {
      "constant": true,
      "inputs": [
        {
          "name": "",
          "type": "address"
        }
      ],
      "name": "trxBalance",
      "outputs": [
        {
          "name": "",
          "type": "uint256"
        }
      ],
      "payable": false,
      "stateMutability": "view",
      "type": "function"
    },
    {
      "inputs": [
        {
          "name": "_devTeam",
          "type": "address"
        }
      ],
      "payable": false,
      "stateMutability": "nonpayable",
      "type": "constructor"
    },
    {
      "payable": true,
      "stateMutability": "payable",
      "type": "fallback"
    },
    {
      "anonymous": false,
      "inputs": [
        {
          "indexed": false,
          "name": "owner",
          "type": "address"
        },
        {
          "indexed": false,
          "name": "numGoldsToBuy",
          "type": "uint256"
        }
      ],
      "name": "BuyGoldCompeteEvent",
      "type": "event"
    },
    {
      "anonymous": false,
      "inputs": [
        {
          "indexed": false,
          "name": "owner",
          "type": "address"
        },
        {
          "indexed": false,
          "name": "numVideoAdsToBuy",
          "type": "uint256"
        }
      ],
      "name": "BuyVideoAdsCompeteEvent",
      "type": "event"
    },
    {
      "anonymous": false,
      "inputs": [
        {
          "indexed": false,
          "name": "owner",
          "type": "address"
        },
        {
          "indexed": false,
          "name": "numRewarded",
          "type": "uint256"
        }
      ],
      "name": "ChallengeModeBonusRewardedEvent",
      "type": "event"
    },
    {
      "anonymous": false,
      "inputs": [
        {
          "indexed": false,
          "name": "owner",
          "type": "address"
        },
        {
          "indexed": false,
          "name": "numTRX",
          "type": "uint256"
        }
      ],
      "name": "WithdrawTRXBalanceCompleteEvent",
      "type": "event"
    },
    {
      "anonymous": false,
      "inputs": [
        {
          "indexed": false,
          "name": "owner",
          "type": "address"
        },
        {
          "indexed": false,
          "name": "numTRX",
          "type": "uint256"
        }
      ],
      "name": "WithdrawBalanceCompleteEvent",
      "type": "event"
    },
    {
      "constant": false,
      "inputs": [
        {
          "name": "_newCEO",
          "type": "address"
        }
      ],
      "name": "setCEO",
      "outputs": [],
      "payable": false,
      "stateMutability": "nonpayable",
      "type": "function"
    },
    {
      "constant": false,
      "inputs": [
        {
          "name": "fee",
          "type": "uint256"
        }
      ],
      "name": "setGoldPrice",
      "outputs": [],
      "payable": false,
      "stateMutability": "nonpayable",
      "type": "function"
    },
    {
      "constant": false,
      "inputs": [
        {
          "name": "max",
          "type": "uint256"
        }
      ],
      "name": "setMaxChallengeBonus",
      "outputs": [],
      "payable": false,
      "stateMutability": "nonpayable",
      "type": "function"
    },
    {
      "constant": true,
      "inputs": [],
      "name": "getPrizePool",
      "outputs": [
        {
          "name": "",
          "type": "uint256"
        }
      ],
      "payable": false,
      "stateMutability": "view",
      "type": "function"
    },
    {
      "constant": false,
      "inputs": [],
      "name": "buyGolds",
      "outputs": [],
      "payable": true,
      "stateMutability": "payable",
      "type": "function"
    },
    {
      "constant": true,
      "inputs": [],
      "name": "getTotalNumVideoAds",
      "outputs": [
        {
          "name": "",
          "type": "uint256"
        }
      ],
      "payable": false,
      "stateMutability": "view",
      "type": "function"
    },
    {
      "constant": true,
      "inputs": [
        {
          "name": "vid",
          "type": "uint256"
        }
      ],
      "name": "getVideoAdsInfo",
      "outputs": [
        {
          "name": "",
          "type": "uint256"
        },
        {
          "name": "",
          "type": "uint256"
        },
        {
          "name": "",
          "type": "uint256"
        },
        {
          "name": "",
          "type": "string"
        },
        {
          "name": "",
          "type": "string"
        }
      ],
      "payable": false,
      "stateMutability": "view",
      "type": "function"
    },
    {
      "constant": false,
      "inputs": [
        {
          "name": "_platform",
          "type": "string"
        },
        {
          "name": "_vid",
          "type": "string"
        },
        {
          "name": "_cpcv",
          "type": "uint256"
        }
      ],
      "name": "buyVideoAds",
      "outputs": [],
      "payable": true,
      "stateMutability": "payable",
      "type": "function"
    },
    {
      "constant": true,
      "inputs": [],
      "name": "getRandomVideoAds",
      "outputs": [
        {
          "name": "",
          "type": "string"
        },
        {
          "name": "",
          "type": "string"
        },
        {
          "name": "",
          "type": "uint256"
        }
      ],
      "payable": false,
      "stateMutability": "view",
      "type": "function"
    },
    {
      "constant": false,
      "inputs": [
        {
          "name": "bonus",
          "type": "uint256"
        },
        {
          "name": "videoId",
          "type": "uint256"
        }
      ],
      "name": "claimChallengeModeReward",
      "outputs": [],
      "payable": false,
      "stateMutability": "nonpayable",
      "type": "function"
    },
    {
      "constant": false,
      "inputs": [],
      "name": "withdrawTRXBalance",
      "outputs": [],
      "payable": false,
      "stateMutability": "nonpayable",
      "type": "function"
    },
    {
      "constant": false,
      "inputs": [
        {
          "name": "amount",
          "type": "uint256"
        }
      ],
      "name": "withdraw",
      "outputs": [],
      "payable": false,
      "stateMutability": "nonpayable",
      "type": "function"
    }
  ],
  "bytecode": "0x608060405261271060055562e4e1c0600655600060075534801561002257600080fd5b5060405160208061194b8339810180604052810190808051906020019092919050505033600360006101000a81548173ffffffffffffffffffffffffffffffffffffffff021916908373ffffffffffffffffffffffffffffffffffffffff16021790555080600460006101000a81548173ffffffffffffffffffffffffffffffffffffffff021916908373ffffffffffffffffffffffffffffffffffffffff16021790555050611874806100d76000396000f3006080604052600436106100e6576000357c0100000000000000000000000000000000000000000000000000000000900463ffffffff1680630a0f8168146100e857806327d7874c1461013f57806328495943146101825780632d02a5b2146102855780632e1a7d4d146102b257806344501404146102df57806366a31e5b1461030a5780637604137614610321578063884bf67c146103785780639cd1a584146103a35780639fdd4691146103fa578063ad5a719d146104a6578063c578437f146104dd578063d0713c1214610604578063e277d3e514610631578063ecb468581461065c575b005b3480156100f457600080fd5b506100fd610666565b604051808273ffffffffffffffffffffffffffffffffffffffff1673ffffffffffffffffffffffffffffffffffffffff16815260200191505060405180910390f35b34801561014b57600080fd5b50610180600480360381019080803573ffffffffffffffffffffffffffffffffffffffff16906020019092919050505061068c565b005b34801561018e57600080fd5b50610197610768565b604051808060200180602001848152602001838103835286818151815260200191508051906020019080838360005b838110156101e15780820151818401526020810190506101c6565b50505050905090810190601f16801561020e5780820380516001836020036101000a031916815260200191505b50838103825285818151815260200191508051906020019080838360005b8381101561024757808201518184015260208101905061022c565b50505050905090810190601f1680156102745780820380516001836020036101000a031916815260200191505b509550505050505060405180910390f35b34801561029157600080fd5b506102b060048036038101908080359060200190929190505050610907565b005b3480156102be57600080fd5b506102dd6004803603810190808035906020019092919050505061096d565b005b3480156102eb57600080fd5b506102f4610a95565b6040518082815260200191505060405180910390f35b34801561031657600080fd5b5061031f610a9b565b005b34801561032d57600080fd5b50610336610c58565b604051808273ffffffffffffffffffffffffffffffffffffffff1673ffffffffffffffffffffffffffffffffffffffff16815260200191505060405180910390f35b34801561038457600080fd5b5061038d610c7e565b6040518082815260200191505060405180910390f35b3480156103af57600080fd5b506103e4600480360381019080803573ffffffffffffffffffffffffffffffffffffffff169060200190929190505050610ca1565b6040518082815260200191505060405180910390f35b6104a4600480360381019080803590602001908201803590602001908080601f0160208091040260200160405190810160405280939291908181526020018383808284378201915050505050509192919290803590602001908201803590602001908080601f016020809104026020016040519081016040528093929190818152602001838380828437820191505050505050919291929080359060200190929190505050610cb9565b005b3480156104b257600080fd5b506104db6004803603810190808035906020019092919080359060200190929190505050610fcc565b005b3480156104e957600080fd5b506105086004803603810190808035906020019092919050505061119c565b604051808681526020018581526020018481526020018060200180602001838103835285818151815260200191508051906020019080838360005b8381101561055e578082015181840152602081019050610543565b50505050905090810190601f16801561058b5780820380516001836020036101000a031916815260200191505b50838103825284818151815260200191508051906020019080838360005b838110156105c45780820151818401526020810190506105a9565b50505050905090810190601f1680156105f15780820380516001836020036101000a031916815260200191505b5097505050505050505060405180910390f35b34801561061057600080fd5b5061062f60048036038101908080359060200190929190505050611383565b005b34801561063d57600080fd5b506106466113e9565b6040518082815260200191505060405180910390f35b610664611431565b005b600360009054906101000a900473ffffffffffffffffffffffffffffffffffffffff1681565b600360009054906101000a900473ffffffffffffffffffffffffffffffffffffffff1673ffffffffffffffffffffffffffffffffffffffff163373ffffffffffffffffffffffffffffffffffffffff161415156106e857600080fd5b600073ffffffffffffffffffffffffffffffffffffffff168173ffffffffffffffffffffffffffffffffffffffff161415151561072457600080fd5b80600360006101000a81548173ffffffffffffffffffffffffffffffffffffffff021916908373ffffffffffffffffffffffffffffffffffffffff16021790555050565b60608060008060008060008054905011151561078357600080fd5b610798600080805490504261271060016115b6565b91506000828154811015156107a957fe5b90600052602060002090600502019050806003018160040183828054600181600116156101000203166002900480601f0160208091040260200160405190810160405280929190818152602001828054600181600116156101000203166002900480156108575780601f1061082c57610100808354040283529160200191610857565b820191906000526020600020905b81548152906001019060200180831161083a57829003601f168201915b50505050509250818054600181600116156101000203166002900480601f0160208091040260200160405190810160405280929190818152602001828054600181600116156101000203166002900480156108f35780601f106108c8576101008083540402835291602001916108f3565b820191906000526020600020905b8154815290600101906020018083116108d657829003601f168201915b505050505091509450945094505050909192565b600360009054906101000a900473ffffffffffffffffffffffffffffffffffffffff1673ffffffffffffffffffffffffffffffffffffffff163373ffffffffffffffffffffffffffffffffffffffff1614151561096357600080fd5b8060058190555050565b600360009054906101000a900473ffffffffffffffffffffffffffffffffffffffff1673ffffffffffffffffffffffffffffffffffffffff163373ffffffffffffffffffffffffffffffffffffffff161415156109c957600080fd5b6000811180156109f057503073ffffffffffffffffffffffffffffffffffffffff16318111155b15156109fb57600080fd5b610a27600360009054906101000a900473ffffffffffffffffffffffffffffffffffffffff168261160e565b7f690280ea35b3699c01749e679cda59436d895edab3dc5828d457e9693f9a44283382604051808373ffffffffffffffffffffffffffffffffffffffff1673ffffffffffffffffffffffffffffffffffffffff1681526020018281526020019250505060405180910390a150565b60055481565b60008073ffffffffffffffffffffffffffffffffffffffff163373ffffffffffffffffffffffffffffffffffffffff1614151515610ad857600080fd5b6000600860003373ffffffffffffffffffffffffffffffffffffffff1673ffffffffffffffffffffffffffffffffffffffff16815260200190815260200160002054111515610b2657600080fd5b600860003373ffffffffffffffffffffffffffffffffffffffff1673ffffffffffffffffffffffffffffffffffffffff1681526020019081526020016000205490506000600860003373ffffffffffffffffffffffffffffffffffffffff1673ffffffffffffffffffffffffffffffffffffffff16815260200190815260200160002081905550806007541115610bd757610bcc816007546116a490919063ffffffff16565b600781905550610be0565b60006007819055505b610bea338261160e565b7fcedeb1bf1ed2cdd0546edfb35c75d54ac34972cadcbdeeae0564e0178c836cfa3382604051808373ffffffffffffffffffffffffffffffffffffffff1673ffffffffffffffffffffffffffffffffffffffff1681526020018281526020019250505060405180910390a150565b600460009054906101000a900473ffffffffffffffffffffffffffffffffffffffff1681565b60006007543073ffffffffffffffffffffffffffffffffffffffff163103905090565b60086020528060005260406000206000915090505481565b6000806000610cc6611773565b600080600073ffffffffffffffffffffffffffffffffffffffff163373ffffffffffffffffffffffffffffffffffffffff1614151515610d0557600080fd5b863410151515610d1457600080fd5b610d2787346116c590919063ffffffff16565b9550610d506064610d42600a346116ef90919063ffffffff16565b6116c590919063ffffffff16565b9450843403935060a060405190810160405280878152602001600081526020018881526020018a81526020018981525092506001600084908060018154018082558091505090600182039060005260206000209060050201600090919290919091506000820151816000015560208201518160010155604082015181600201556060820151816003019080519060200190610dec9291906117a3565b506080820151816004019080519060200190610e099291906117a3565b5050500391508163ffffffff1682141515610e2357600080fd5b600160003373ffffffffffffffffffffffffffffffffffffffff1673ffffffffffffffffffffffffffffffffffffffff168152602001908152602001600020829080600181540180825580915050906001820390600052602060002001600090919290919091505550336002600084815260200190815260200160002060006101000a81548173ffffffffffffffffffffffffffffffffffffffff021916908373ffffffffffffffffffffffffffffffffffffffff160217905550610f0a600460009054906101000a900473ffffffffffffffffffffffffffffffffffffffff168661160e565b610f1d87876116ef90919063ffffffff16565b841115610f5657610f49610f3a88886116ef90919063ffffffff16565b856116a490919063ffffffff16565b9050610f55338261160e565b5b7fff00f9dec6ff74592ff3a3ea503836ed98989b520b6edaf028f4afbb690f5c513387604051808373ffffffffffffffffffffffffffffffffffffffff1673ffffffffffffffffffffffffffffffffffffffff1681526020018281526020019250505060405180910390a1505050505050505050565b60008073ffffffffffffffffffffffffffffffffffffffff163373ffffffffffffffffffffffffffffffffffffffff161415151561100957600080fd5b60008311151561101857600080fd5b60008210151561106c5760008281548110151561103157fe5b9060005260206000209060050201905080600101600081548092919060010191905055506110696002846116ef90919063ffffffff16565b92505b60065483111561107c5760065492505b6110ce83600860003373ffffffffffffffffffffffffffffffffffffffff1673ffffffffffffffffffffffffffffffffffffffff1681526020019081526020016000205461172d90919063ffffffff16565b600860003373ffffffffffffffffffffffffffffffffffffffff1673ffffffffffffffffffffffffffffffffffffffff168152602001908152602001600020819055506111268360075461172d90919063ffffffff16565b6007819055507f11cd4bb90d60df81a886c31a70a7bd5bfb3cd4977a42ed1ad92205ebaf483ff03384604051808373ffffffffffffffffffffffffffffffffffffffff1673ffffffffffffffffffffffffffffffffffffffff1681526020018281526020019250505060405180910390a1505050565b600080600060608060008073ffffffffffffffffffffffffffffffffffffffff163373ffffffffffffffffffffffffffffffffffffffff16141515156111e157600080fd5b600087101580156111f6575060008054905087105b151561120157600080fd5b60008781548110151561121057fe5b906000526020600020906005020190508060000154816001015482600201548360030184600401818054600181600116156101000203166002900480601f0160208091040260200160405190810160405280929190818152602001828054600181600116156101000203166002900480156112cc5780601f106112a1576101008083540402835291602001916112cc565b820191906000526020600020905b8154815290600101906020018083116112af57829003601f168201915b50505050509150808054600181600116156101000203166002900480601f0160208091040260200160405190810160405280929190818152602001828054600181600116156101000203166002900480156113685780601f1061133d57610100808354040283529160200191611368565b820191906000526020600020905b81548152906001019060200180831161134b57829003601f168201915b50505050509050955095509550955095505091939590929450565b600360009054906101000a900473ffffffffffffffffffffffffffffffffffffffff1673ffffffffffffffffffffffffffffffffffffffff163373ffffffffffffffffffffffffffffffffffffffff161415156113df57600080fd5b8060068190555050565b60008073ffffffffffffffffffffffffffffffffffffffff163373ffffffffffffffffffffffffffffffffffffffff161415151561142657600080fd5b600080549050905090565b600080600080600073ffffffffffffffffffffffffffffffffffffffff163373ffffffffffffffffffffffffffffffffffffffff161415151561147357600080fd5b600554341015151561148457600080fd5b611499600554346116c590919063ffffffff16565b93506114c260646114b4600a346116ef90919063ffffffff16565b6116c590919063ffffffff16565b925082340391506114f5600460009054906101000a900473ffffffffffffffffffffffffffffffffffffffff168461160e565b61150a600554856116ef90919063ffffffff16565b82111561154557611538611529600554866116ef90919063ffffffff16565b836116a490919063ffffffff16565b9050611544338261160e565b5b7fa449832067173f5bb80b93f118de405625acdd756496e7d5d58e2b64c83a35033385604051808373ffffffffffffffffffffffffffffffffffffffff1673ffffffffffffffffffffffffffffffffffffffff1681526020018281526020019250505060405180910390a150505050565b6000611603866115f58888036115e7866115d9898b61174e90919063ffffffff16565b6116c590919063ffffffff16565b61174e90919063ffffffff16565b61172d90919063ffffffff16565b905095945050505050565b600073ffffffffffffffffffffffffffffffffffffffff168273ffffffffffffffffffffffffffffffffffffffff161415151561164a57600080fd5b60008111151561165957600080fd5b8173ffffffffffffffffffffffffffffffffffffffff166108fc829081150290604051600060405180830381858888f1935050505015801561169f573d6000803e3d6000fd5b505050565b6000808383111515156116b657600080fd5b82840390508091505092915050565b6000806000831115156116d757600080fd5b82848115156116e257fe5b0490508091505092915050565b60008060008414156117045760009150611726565b828402905082848281151561171557fe5b0414151561172257600080fd5b8091505b5092915050565b600080828401905083811015151561174457600080fd5b8091505092915050565b600080821415151561175f57600080fd5b818381151561176a57fe5b06905092915050565b60a06040519081016040528060008152602001600081526020016000815260200160608152602001606081525090565b828054600181600116156101000203166002900490600052602060002090601f016020900481019282601f106117e457805160ff1916838001178555611812565b82800160010185558215611812579182015b828111156118115782518255916020019190600101906117f6565b5b50905061181f9190611823565b5090565b61184591905b80821115611841576000816000905550600101611829565b5090565b905600a165627a7a723058200de954b18d0586a77c11946d8342db0dd292b8aedbdc046cdf84281eae0bd3340029",
  "source": "pragma solidity ^0.4.23;\n\n/**\n * @title SafeMath\n * @dev Math operations with safety checks that revert on error\n */\nlibrary SafeMath {\n    int256 constant private INT256_MIN = -2**255;\n\n    /**\n    * @dev Multiplies two unsigned integers, reverts on overflow.\n    */\n    function mul(uint256 a, uint256 b) internal pure returns (uint256) {\n        // Gas optimization: this is cheaper than requiring 'a' not being zero, but the\n        // benefit is lost if 'b' is also tested.\n        // See: https://github.com/OpenZeppelin/openzeppelin-solidity/pull/522\n        if (a == 0) {\n            return 0;\n        }\n\n        uint256 c = a * b;\n        require(c / a == b);\n\n        return c;\n    }\n\n    /**\n    * @dev Multiplies two signed integers, reverts on overflow.\n    */\n    function mul(int256 a, int256 b) internal pure returns (int256) {\n        // Gas optimization: this is cheaper than requiring 'a' not being zero, but the\n        // benefit is lost if 'b' is also tested.\n        // See: https://github.com/OpenZeppelin/openzeppelin-solidity/pull/522\n        if (a == 0) {\n            return 0;\n        }\n\n        require(!(a == -1 && b == INT256_MIN)); // This is the only case of overflow not detected by the check below\n\n        int256 c = a * b;\n        require(c / a == b);\n\n        return c;\n    }\n\n    /**\n    * @dev Integer division of two unsigned integers truncating the quotient, reverts on division by zero.\n    */\n    function div(uint256 a, uint256 b) internal pure returns (uint256) {\n        // Solidity only automatically asserts when dividing by 0\n        require(b > 0);\n        uint256 c = a / b;\n        // assert(a == b * c + a % b); // There is no case in which this doesn't hold\n\n        return c;\n    }\n\n    /**\n    * @dev Integer division of two signed integers truncating the quotient, reverts on division by zero.\n    */\n    function div(int256 a, int256 b) internal pure returns (int256) {\n        require(b != 0); // Solidity only automatically asserts when dividing by 0\n        require(!(b == -1 && a == INT256_MIN)); // This is the only case of overflow\n\n        int256 c = a / b;\n\n        return c;\n    }\n\n    /**\n    * @dev Subtracts two unsigned integers, reverts on overflow (i.e. if subtrahend is greater than minuend).\n    */\n    function sub(uint256 a, uint256 b) internal pure returns (uint256) {\n        require(b <= a);\n        uint256 c = a - b;\n\n        return c;\n    }\n\n    /**\n    * @dev Subtracts two signed integers, reverts on overflow.\n    */\n    function sub(int256 a, int256 b) internal pure returns (int256) {\n        int256 c = a - b;\n        require((b >= 0 && c <= a) || (b < 0 && c > a));\n\n        return c;\n    }\n\n    /**\n    * @dev Adds two unsigned integers, reverts on overflow.\n    */\n    function add(uint256 a, uint256 b) internal pure returns (uint256) {\n        uint256 c = a + b;\n        require(c >= a);\n\n        return c;\n    }\n\n    /**\n    * @dev Adds two signed integers, reverts on overflow.\n    */\n    function add(int256 a, int256 b) internal pure returns (int256) {\n        int256 c = a + b;\n        require((b >= 0 && c >= a) || (b < 0 && c < a));\n\n        return c;\n    }\n\n    /**\n    * @dev Divides two unsigned integers and returns the remainder (unsigned integer modulo),\n    * reverts when dividing by zero.\n    */\n    function mod(uint256 a, uint256 b) internal pure returns (uint256) {\n        require(b != 0);\n        return a % b;\n    }\n}\n\n/**\n * @title CrazyPinyin\n * @dev CrazyPinyin Main Contract\n */\ncontract CrazyPinyin {\n    using SafeMath for uint256;\n    \n    event BuyGoldCompeteEvent(address owner, uint256 numGoldsToBuy);\n    event BuyVideoAdsCompeteEvent(address owner, uint256 numVideoAdsToBuy);\n    event ChallengeModeBonusRewardedEvent(address owner, uint256 numRewarded);\n    event WithdrawTRXBalanceCompleteEvent(address owner, uint256 numTRX);\n    event WithdrawBalanceCompleteEvent(address owner, uint256 numTRX);\n    //event LOG_SAFE_SEND(uint256 a, address b, uint256 c);\n    //event LOG_SEND_MONEY_BACK(uint256 amount);\n    \n    struct VideoAdsData {\n        uint256 total;\n        uint256 numCV; // number of completed view\n        uint256 cpcv; // cost per completed view\n        string platform;\n        string videoId;\n    }\n    VideoAdsData[] internal allVideoAds;\n    mapping (address => uint256[]) internal advertiserToVideoAdsIdx;\n    mapping (uint => address) internal videoAdsIdxToAdvertiser;\n    \n    address public ceoAddress;\n    address public devTeamAddress;\n    uint256 public goldPrice = 0.01 trx;\n    uint256 private maxChallengeBonus = 15000000; // 15 trx\n    uint256 private currentLockedTRX = 0;\n    mapping(address => uint256) public trxBalance;\n    \n    /**\n    * @dev Constructor\n    */\n    constructor(address _devTeam) public {\n        ceoAddress = msg.sender;\n        devTeamAddress = _devTeam;\n    }\n    \n    /**\n    * @dev Access Control Modifier\n    */\n    modifier onlyCEO() {\n        require(msg.sender == ceoAddress);\n        _;\n    }\n    \n    /**\n    * @dev Access Control\n    */\n    function setCEO(address _newCEO) public onlyCEO {\n        require(_newCEO != address(0));\n        ceoAddress = _newCEO;\n    }\n    \n    /**\n    * @dev Set the price for each gold\n    */\n    function setGoldPrice(uint256 fee) public onlyCEO {\n        goldPrice = fee;\n    }\n    \n    /**\n    * @dev Get the price for each gold\n    */\n    function setMaxChallengeBonus(uint256 max) public onlyCEO {\n        maxChallengeBonus = max;\n    }\n\n    /**\n    * @dev Get total Prize Pool\n    */\n    function getPrizePool() public view returns (uint256) {\n        return (address(this).balance - currentLockedTRX);\n    }\n    \n    /**\n    * @dev Buy golds according to the goldPrice.\n    * 10% of the trx received will be given to Dev Team\n    * 90% of the trx received will be used as an incentive prize pool for gamers\n    */\n    function buyGolds() public payable {\n        require(msg.sender != address(0));\n        require(msg.value >= goldPrice);\n        \n        uint256 numGoldsToBuy = msg.value.div(goldPrice);\n        uint256 devTeamVal = msg.value.mul(10).div(100);\n        uint256 remainingVal = msg.value - devTeamVal;\n        \n        _safeSend(devTeamAddress, devTeamVal);\n        if (remainingVal > numGoldsToBuy.mul(goldPrice)) {\n            uint256 feeExcess = remainingVal.sub(numGoldsToBuy.mul(goldPrice));\n            //emit LOG_SEND_MONEY_BACK(feeExcess);\n            _safeSend(msg.sender, feeExcess);\n        }\n        \n        emit BuyGoldCompeteEvent(msg.sender, numGoldsToBuy);\n    }\n\n    /**\n    * @dev Get Video Ad Info base on index on allVideoAds\n    */\n    function getTotalNumVideoAds() public view returns (uint256) {\n        require(msg.sender != address(0));\n        return allVideoAds.length;\n    }\n\n    /**\n    * @dev Get Video Ad Info base on index on allVideoAds\n    */\n    function getVideoAdsInfo(uint256 vid) public view returns (uint256, uint256, uint256, string, string) {\n        require(msg.sender != address(0));\n        require(vid >= 0 && vid < allVideoAds.length);\n\n        VideoAdsData storage videoData = allVideoAds[vid];\n        return (videoData.total, videoData.numCV, videoData.cpcv, videoData.platform, videoData.videoId);\n    }\n    \n    /**\n    * @dev Buy Video Ads according to the _cpcv.\n    * This method is ready to use for advitisers who want to promote their product in CrazyPinyin.\n    * 10% of the trx received will be given to Dev Team\n    * 90% of the trx received will be used as an incentive prize pool for gamers\n    */\n    function buyVideoAds(string _platform, string _vid, uint256 _cpcv) public payable {\n        require(msg.sender != address(0));\n        require(msg.value >= _cpcv);\n        \n        uint256 numAdsToBuy = msg.value.div(_cpcv);\n        uint256 devTeamVal = msg.value.mul(10).div(100);\n        uint256 remainingVal = msg.value - devTeamVal;\n        \n        VideoAdsData memory _videoAdsData = VideoAdsData({\n            total: numAdsToBuy,\n            numCV: uint256(0),\n            cpcv: _cpcv,\n            platform: _platform,\n            videoId: _vid\n        });\n        \n        uint256 newVideoIdx = allVideoAds.push(_videoAdsData) - 1;\n        // It's probably never going to happen, 4 billion cats is A LOT, but\n        // let's just be 100% sure we never let this happen.\n        require(newVideoIdx == uint256(uint32(newVideoIdx)));\n        \n        advertiserToVideoAdsIdx[msg.sender].push(newVideoIdx);\n        videoAdsIdxToAdvertiser[newVideoIdx] = msg.sender;\n        \n        _safeSend(devTeamAddress, devTeamVal);\n        if (remainingVal > numAdsToBuy.mul(_cpcv)) {\n            uint256 feeExcess = remainingVal.sub(numAdsToBuy.mul(_cpcv));\n            //emit LOG_SEND_MONEY_BACK(feeExcess);\n            _safeSend(msg.sender, feeExcess);\n        }\n        \n        emit BuyVideoAdsCompeteEvent(msg.sender, numAdsToBuy);\n    }\n    \n    /**\n    * @dev Get a random Video Ad to display in CrazyPinyin\n    */\n    function getRandomVideoAds() public view returns (string, string, uint256) {\n        require(allVideoAds.length > 0);\n        \n        uint256 index = _random(0, allVideoAds.length, block.timestamp, 10000, 1);\n        VideoAdsData storage data = allVideoAds[index];\n        return (data.platform, data.videoId, index);\n    }\n    \n    /**\n    * @dev Gamers claim the estimated rewards for each challenge round\n    *      Later, this method should be call from a remote server with onlyCEO access.\n    */\n    function claimChallengeModeReward(uint256 bonus, uint256 videoId) public {\n        require(msg.sender != address(0));\n        require(bonus > 0);\n\n        if (videoId >= 0) {\n            VideoAdsData storage data = allVideoAds[videoId];\n            data.numCV++;\n            bonus = bonus.mul(2);\n        }\n\n        if (bonus > maxChallengeBonus) {\n            bonus = maxChallengeBonus;\n        }\n\n        trxBalance[msg.sender] = trxBalance[msg.sender].add(bonus);\n        currentLockedTRX = currentLockedTRX.add(bonus);\n        \n        emit ChallengeModeBonusRewardedEvent(msg.sender, bonus);\n    }\n    \n    /**\n    * @dev Withdraw trx games earned by playing CrazyPinyin\n    */\n    function withdrawTRXBalance() public {\n        require(msg.sender != address(0));\n        require(trxBalance[msg.sender] > 0);\n        \n        uint256 amount = trxBalance[msg.sender];\n        trxBalance[msg.sender] = 0;\n        if (currentLockedTRX > amount) {\n            currentLockedTRX = currentLockedTRX.sub(amount);\n        } else {\n            currentLockedTRX = 0;\n        }\n        _safeSend(msg.sender, amount);\n\n        emit WithdrawTRXBalanceCompleteEvent(msg.sender, amount);\n    }\n    \n    /**\n    * @dev Withdraw dangling trx\n    */\n    function withdraw(uint256 amount) public onlyCEO {\n        require(amount > 0 && amount <= address(this).balance);\n        _safeSend(ceoAddress, amount);\n\n        emit WithdrawBalanceCompleteEvent(msg.sender, amount);\n    }\n    \n    /**\n    * @dev Utility method\n    */\n    function _safeSend(address _recipient, uint256 _amount) private {\n        //emit LOG_SAFE_SEND(1, _recipient, _amount);\n        require(_recipient != address(0));\n        require(_amount > 0);\n        \n        _recipient.transfer(_amount);\n        //emit LOG_SAFE_SEND(2, _recipient, address(this).balance);\n      \n        // bool success = _recipient.transfer(_amount);\n        // LOG_SAFE_SEND(success ? 1 : 0, _amount);\n        // if (!success) {\n        //     recipientUpPaidReward[_recipient] += _amount;\n        // }\n    }\n    \n    /**\n    * @dev Utility method\n    */\n    function _random(uint256 _min, uint256 _max, uint256 _hash, uint256 _reminder, uint256 _divider) private pure returns (uint256) {\n        return _hash.mod(_reminder).div(_divider).mod(_max - _min).add(_min);\n    }\n    \n    /**\n    * @dev Fallback\n    */\n    function() external payable {\n    }\n}\n  ",
  "sourcePath": "/Users/liuya/Projects/TRON/Projects/CrazyPinYin/tronbox/contracts/CrazyPinyin.sol",
  "compiler": {
    "name": "solc",
    "version": "0.4.24-develop.2018.8.28+commit.3ba0cdec.mod.Emscripten.clang"
  },
  "schemaVersion": "2.0.1",
  "updatedAt": "2019-01-04T02:57:00.518Z"
}